{
  "_format": "hh-sol-artifact-1",
  "contractName": "EtherDocs",
  "sourceName": "contracts/EtherDocs.sol",
  "abi": [
    {
      "inputs": [
        {
          "internalType": "string",
          "name": "uuid",
          "type": "string"
        }
      ],
      "name": "getCertificate",
      "outputs": [
        {
          "internalType": "string",
          "name": "",
          "type": "string"
        },
        {
          "internalType": "address",
          "name": "",
          "type": "address"
        },
        {
          "internalType": "address",
          "name": "",
          "type": "address"
        },
        {
          "internalType": "string",
          "name": "",
          "type": "string"
        },
        {
          "internalType": "string",
          "name": "",
          "type": "string"
        },
        {
          "internalType": "bool",
          "name": "",
          "type": "bool"
        }
      ],
      "stateMutability": "view",
      "type": "function"
    },
    {
      "inputs": [],
      "name": "getCertificatesIssuedBy",
      "outputs": [
        {
          "internalType": "string[]",
          "name": "",
          "type": "string[]"
        }
      ],
      "stateMutability": "view",
      "type": "function"
    },
    {
      "inputs": [],
      "name": "getCertificatesIssuedFor",
      "outputs": [
        {
          "internalType": "string[]",
          "name": "",
          "type": "string[]"
        }
      ],
      "stateMutability": "view",
      "type": "function"
    },
    {
      "inputs": [],
      "name": "getProfile",
      "outputs": [
        {
          "internalType": "address",
          "name": "",
          "type": "address"
        },
        {
          "internalType": "string",
          "name": "",
          "type": "string"
        },
        {
          "internalType": "string",
          "name": "",
          "type": "string"
        }
      ],
      "stateMutability": "view",
      "type": "function"
    },
    {
      "inputs": [
        {
          "internalType": "address",
          "name": "user",
          "type": "address"
        }
      ],
      "name": "getProfileByAddress",
      "outputs": [
        {
          "internalType": "address",
          "name": "",
          "type": "address"
        },
        {
          "internalType": "string",
          "name": "",
          "type": "string"
        },
        {
          "internalType": "string",
          "name": "",
          "type": "string"
        }
      ],
      "stateMutability": "view",
      "type": "function"
    },
    {
      "inputs": [
        {
          "internalType": "string",
          "name": "uuid",
          "type": "string"
        }
      ],
      "name": "invalidateCertificate",
      "outputs": [],
      "stateMutability": "nonpayable",
      "type": "function"
    },
    {
      "inputs": [],
      "name": "isIssuer",
      "outputs": [
        {
          "internalType": "bool",
          "name": "",
          "type": "bool"
        }
      ],
      "stateMutability": "view",
      "type": "function"
    },
    {
      "inputs": [],
      "name": "isRegistered",
      "outputs": [
        {
          "internalType": "bool",
          "name": "",
          "type": "bool"
        }
      ],
      "stateMutability": "view",
      "type": "function"
    },
    {
      "inputs": [],
      "name": "isUser",
      "outputs": [
        {
          "internalType": "bool",
          "name": "",
          "type": "bool"
        }
      ],
      "stateMutability": "view",
      "type": "function"
    },
    {
      "inputs": [
        {
          "internalType": "string",
          "name": "name",
          "type": "string"
        },
        {
          "internalType": "address",
          "name": "userAddr",
          "type": "address"
        },
        {
          "internalType": "string",
          "name": "uuid",
          "type": "string"
        },
        {
          "internalType": "string",
          "name": "hashValue",
          "type": "string"
        },
        {
          "internalType": "string",
          "name": "ipfsUrl",
          "type": "string"
        }
      ],
      "name": "issueCertificate",
      "outputs": [],
      "stateMutability": "nonpayable",
      "type": "function"
    },
    {
      "inputs": [
        {
          "internalType": "string",
          "name": "name",
          "type": "string"
        }
      ],
      "name": "registerIssuer",
      "outputs": [],
      "stateMutability": "nonpayable",
      "type": "function"
    },
    {
      "inputs": [
        {
          "internalType": "string",
          "name": "name",
          "type": "string"
        }
      ],
      "name": "registerUser",
      "outputs": [],
      "stateMutability": "nonpayable",
      "type": "function"
    },
    {
      "inputs": [
        {
          "internalType": "string",
          "name": "uuid",
          "type": "string"
        },
        {
          "internalType": "address",
          "name": "issuerAddr",
          "type": "address"
        },
        {
          "internalType": "address",
          "name": "userAddr",
          "type": "address"
        },
        {
          "internalType": "string",
          "name": "hashValue",
          "type": "string"
        }
      ],
      "name": "verifyCertificate",
      "outputs": [
        {
          "internalType": "bool",
          "name": "",
          "type": "bool"
        }
      ],
      "stateMutability": "view",
      "type": "function"
    }
  ],
  "bytecode": "0x608060405234801561001057600080fd5b506126c1806100206000396000f3fe608060405234801561001057600080fd5b50600436106100cf5760003560e01c80635b1146bd1161008c57806386af78fa1161006657806386af78fa14610200578063cfa026da1461021e578063d6afc9b11461023c578063ed0f2e751461025c576100cf565b80635b1146bd146101ac5780636f4581dc146101c8578063704f1b94146101e4576100cf565b806306982546146100d4578063223668441461010457806324f349f914610122578063455a04ab1461013e5780634c22c1191461015c5780634cd6959c1461017a575b600080fd5b6100ee60048036038101906100e99190611b04565b610291565b6040516100fb9190611bc6565b60405180910390f35b61010c610685565b6040516101199190611bc6565b60405180910390f35b61013c60048036038101906101379190611be1565b6106dc565b005b6101466107b4565b6040516101539190611d80565b60405180910390f35b6101646108ca565b6040516101719190611bc6565b60405180910390f35b610194600480360381019061018f9190611da2565b610965565b6040516101a393929190611e28565b60405180910390f35b6101c660048036038101906101c19190611e6d565b610b96565b005b6101e260048036038101906101dd9190611be1565b610f7a565b005b6101fe60048036038101906101f99190611be1565b6110dc565b005b61020861123e565b6040516102159190611bc6565b60405180910390f35b6102266112d9565b6040516102339190611d80565b60405180910390f35b6102446113ef565b60405161025393929190611e28565b60405180910390f35b61027660048036038101906102719190611be1565b61161e565b60405161028896959493929190611f69565b60405180910390f35b600080600188886040516102a692919061201e565b90815260200160405180910390206040518060e00160405290816000820180546102cf90612066565b80601f01602080910402602001604051908101604052809291908181526020018280546102fb90612066565b80156103485780601f1061031d57610100808354040283529160200191610348565b820191906000526020600020905b81548152906001019060200180831161032b57829003601f168201915b505050505081526020016001820160009054906101000a900473ffffffffffffffffffffffffffffffffffffffff1673ffffffffffffffffffffffffffffffffffffffff1673ffffffffffffffffffffffffffffffffffffffff1681526020016002820160009054906101000a900473ffffffffffffffffffffffffffffffffffffffff1673ffffffffffffffffffffffffffffffffffffffff1673ffffffffffffffffffffffffffffffffffffffff16815260200160038201805461040d90612066565b80601f016020809104026020016040519081016040528092919081815260200182805461043990612066565b80156104865780601f1061045b57610100808354040283529160200191610486565b820191906000526020600020905b81548152906001019060200180831161046957829003601f168201915b5050505050815260200160048201805461049f90612066565b80601f01602080910402602001604051908101604052809291908181526020018280546104cb90612066565b80156105185780601f106104ed57610100808354040283529160200191610518565b820191906000526020600020905b8154815290600101906020018083116104fb57829003601f168201915b505050505081526020016005820160009054906101000a900460ff1615151515815260200160068201805461054c90612066565b80601f016020809104026020016040519081016040528092919081815260200182805461057890612066565b80156105c55780601f1061059a576101008083540402835291602001916105c5565b820191906000526020600020905b8154815290600101906020018083116105a857829003601f168201915b50505050508152505090508060a00151801561061057508573ffffffffffffffffffffffffffffffffffffffff16816020015173ffffffffffffffffffffffffffffffffffffffff16145b801561064b57508473ffffffffffffffffffffffffffffffffffffffff16816040015173ffffffffffffffffffffffffffffffffffffffff16145b8015610678575083836040516106629291906120c7565b60405180910390208160c0015180519060200120145b9150509695505050505050565b6000806000803373ffffffffffffffffffffffffffffffffffffffff1673ffffffffffffffffffffffffffffffffffffffff16815260200190815260200160002060020180546106d490612066565b905011905090565b6000600183836040516106f092919061201e565b908152602001604051809103902090503373ffffffffffffffffffffffffffffffffffffffff168160010160009054906101000a900473ffffffffffffffffffffffffffffffffffffffff1673ffffffffffffffffffffffffffffffffffffffff1614610792576040517f08c379a00000000000000000000000000000000000000000000000000000000081526004016107899061212c565b60405180910390fd5b60008160050160006101000a81548160ff021916908315150217905550505050565b6060600260003373ffffffffffffffffffffffffffffffffffffffff1673ffffffffffffffffffffffffffffffffffffffff168152602001908152602001600020805480602002602001604051908101604052809291908181526020016000905b828210156108c157838290600052602060002001805461083490612066565b80601f016020809104026020016040519081016040528092919081815260200182805461086090612066565b80156108ad5780601f10610882576101008083540402835291602001916108ad565b820191906000526020600020905b81548152906001019060200180831161089057829003601f168201915b505050505081526020019060010190610815565b50505050905090565b60006040518060400160405280600481526020017f5573657200000000000000000000000000000000000000000000000000000000815250805190602001206000803373ffffffffffffffffffffffffffffffffffffffff1673ffffffffffffffffffffffffffffffffffffffff16815260200190815260200160002060020160405161095791906121e4565b604051809103902014905090565b600060608060008060008673ffffffffffffffffffffffffffffffffffffffff1673ffffffffffffffffffffffffffffffffffffffff1681526020019081526020016000206040518060600160405290816000820160009054906101000a900473ffffffffffffffffffffffffffffffffffffffff1673ffffffffffffffffffffffffffffffffffffffff1673ffffffffffffffffffffffffffffffffffffffff168152602001600182018054610a1b90612066565b80601f0160208091040260200160405190810160405280929190818152602001828054610a4790612066565b8015610a945780601f10610a6957610100808354040283529160200191610a94565b820191906000526020600020905b815481529060010190602001808311610a7757829003601f168201915b50505050508152602001600282018054610aad90612066565b80601f0160208091040260200160405190810160405280929190818152602001828054610ad990612066565b8015610b265780601f10610afb57610100808354040283529160200191610b26565b820191906000526020600020905b815481529060010190602001808311610b0957829003601f168201915b5050505050815250509050600081604001515111610b79576040517f08c379a0000000000000000000000000000000000000000000000000000000008152600401610b7090612247565b60405180910390fd5b806000015181602001518260400151935093509350509193909250565b610b9f3361199a565b610bde576040517f08c379a0000000000000000000000000000000000000000000000000000000008152600401610bd5906122d9565b60405180910390fd5b6040518060e001604052808a8a8080601f016020809104026020016040519081016040528093929190818152602001838380828437600081840152601f19601f8201169050808301925050505050505081526020013373ffffffffffffffffffffffffffffffffffffffff1681526020018873ffffffffffffffffffffffffffffffffffffffff16815260200187878080601f016020809104026020016040519081016040528093929190818152602001838380828437600081840152601f19601f82011690508083019250505050505050815260200183838080601f016020809104026020016040519081016040528093929190818152602001838380828437600081840152601f19601f82011690508083019250505050505050815260200160011515815260200185858080601f016020809104026020016040519081016040528093929190818152602001838380828437600081840152601f19601f8201169050808301925050505050505081525060018787604051610d6292919061201e565b90815260200160405180910390206000820151816000019081610d8591906124de565b5060208201518160010160006101000a81548173ffffffffffffffffffffffffffffffffffffffff021916908373ffffffffffffffffffffffffffffffffffffffff16021790555060408201518160020160006101000a81548173ffffffffffffffffffffffffffffffffffffffff021916908373ffffffffffffffffffffffffffffffffffffffff1602179055506060820151816003019081610e2991906124de565b506080820151816004019081610e3f91906124de565b5060a08201518160050160006101000a81548160ff02191690831515021790555060c0820151816006019081610e7591906124de565b50905050600260003373ffffffffffffffffffffffffffffffffffffffff1673ffffffffffffffffffffffffffffffffffffffff168152602001908152602001600020868690918060018154018082558091505060019003906000526020600020016000909192909192909192909192509182610ef39291906125bb565b50600360008873ffffffffffffffffffffffffffffffffffffffff1673ffffffffffffffffffffffffffffffffffffffff168152602001908152602001600020868690918060018154018082558091505060019003906000526020600020016000909192909192909192909192509182610f6e9291906125bb565b50505050505050505050565b60405180606001604052803373ffffffffffffffffffffffffffffffffffffffff16815260200183838080601f016020809104026020016040519081016040528093929190818152602001838380828437600081840152601f19601f8201169050808301925050505050505081526020016040518060400160405280600681526020017f49737375657200000000000000000000000000000000000000000000000000008152508152506000803373ffffffffffffffffffffffffffffffffffffffff1673ffffffffffffffffffffffffffffffffffffffff16815260200190815260200160002060008201518160000160006101000a81548173ffffffffffffffffffffffffffffffffffffffff021916908373ffffffffffffffffffffffffffffffffffffffff16021790555060208201518160010190816110be91906124de565b5060408201518160020190816110d491906124de565b509050505050565b60405180606001604052803373ffffffffffffffffffffffffffffffffffffffff16815260200183838080601f016020809104026020016040519081016040528093929190818152602001838380828437600081840152601f19601f8201169050808301925050505050505081526020016040518060400160405280600481526020017f55736572000000000000000000000000000000000000000000000000000000008152508152506000803373ffffffffffffffffffffffffffffffffffffffff1673ffffffffffffffffffffffffffffffffffffffff16815260200190815260200160002060008201518160000160006101000a81548173ffffffffffffffffffffffffffffffffffffffff021916908373ffffffffffffffffffffffffffffffffffffffff160217905550602082015181600101908161122091906124de565b50604082015181600201908161123691906124de565b509050505050565b60006040518060400160405280600681526020017f4973737565720000000000000000000000000000000000000000000000000000815250805190602001206000803373ffffffffffffffffffffffffffffffffffffffff1673ffffffffffffffffffffffffffffffffffffffff1681526020019081526020016000206002016040516112cb91906121e4565b604051809103902014905090565b6060600360003373ffffffffffffffffffffffffffffffffffffffff1673ffffffffffffffffffffffffffffffffffffffff168152602001908152602001600020805480602002602001604051908101604052809291908181526020016000905b828210156113e657838290600052602060002001805461135990612066565b80601f016020809104026020016040519081016040528092919081815260200182805461138590612066565b80156113d25780601f106113a7576101008083540402835291602001916113d2565b820191906000526020600020905b8154815290600101906020018083116113b557829003601f168201915b50505050508152602001906001019061133a565b50505050905090565b600060608060008060003373ffffffffffffffffffffffffffffffffffffffff1673ffffffffffffffffffffffffffffffffffffffff1681526020019081526020016000206040518060600160405290816000820160009054906101000a900473ffffffffffffffffffffffffffffffffffffffff1673ffffffffffffffffffffffffffffffffffffffff1673ffffffffffffffffffffffffffffffffffffffff1681526020016001820180546114a590612066565b80601f01602080910402602001604051908101604052809291908181526020018280546114d190612066565b801561151e5780601f106114f35761010080835404028352916020019161151e565b820191906000526020600020905b81548152906001019060200180831161150157829003601f168201915b5050505050815260200160028201805461153790612066565b80601f016020809104026020016040519081016040528092919081815260200182805461156390612066565b80156115b05780601f10611585576101008083540402835291602001916115b0565b820191906000526020600020905b81548152906001019060200180831161159357829003601f168201915b5050505050815250509050600081604001515111611603576040517f08c379a00000000000000000000000000000000000000000000000000000000081526004016115fa90612247565b60405180910390fd5b80600001518160200151826040015193509350935050909192565b60606000806060806000806001898960405161163b92919061201e565b90815260200160405180910390206040518060e001604052908160008201805461166490612066565b80601f016020809104026020016040519081016040528092919081815260200182805461169090612066565b80156116dd5780601f106116b2576101008083540402835291602001916116dd565b820191906000526020600020905b8154815290600101906020018083116116c057829003601f168201915b505050505081526020016001820160009054906101000a900473ffffffffffffffffffffffffffffffffffffffff1673ffffffffffffffffffffffffffffffffffffffff1673ffffffffffffffffffffffffffffffffffffffff1681526020016002820160009054906101000a900473ffffffffffffffffffffffffffffffffffffffff1673ffffffffffffffffffffffffffffffffffffffff1673ffffffffffffffffffffffffffffffffffffffff1681526020016003820180546117a290612066565b80601f01602080910402602001604051908101604052809291908181526020018280546117ce90612066565b801561181b5780601f106117f05761010080835404028352916020019161181b565b820191906000526020600020905b8154815290600101906020018083116117fe57829003601f168201915b5050505050815260200160048201805461183490612066565b80601f016020809104026020016040519081016040528092919081815260200182805461186090612066565b80156118ad5780601f10611882576101008083540402835291602001916118ad565b820191906000526020600020905b81548152906001019060200180831161189057829003601f168201915b505050505081526020016005820160009054906101000a900460ff161515151581526020016006820180546118e190612066565b80601f016020809104026020016040519081016040528092919081815260200182805461190d90612066565b801561195a5780601f1061192f5761010080835404028352916020019161195a565b820191906000526020600020905b81548152906001019060200180831161193d57829003601f168201915b5050505050815250509050806000015181602001518260400151836060015184608001518560a00151965096509650965096509650509295509295509295565b60006040518060400160405280600681526020017f4973737565720000000000000000000000000000000000000000000000000000815250805190602001206000808473ffffffffffffffffffffffffffffffffffffffff1673ffffffffffffffffffffffffffffffffffffffff168152602001908152602001600020600201604051611a2791906121e4565b6040518091039020149050919050565b600080fd5b600080fd5b600080fd5b600080fd5b600080fd5b60008083601f840112611a6657611a65611a41565b5b8235905067ffffffffffffffff811115611a8357611a82611a46565b5b602083019150836001820283011115611a9f57611a9e611a4b565b5b9250929050565b600073ffffffffffffffffffffffffffffffffffffffff82169050919050565b6000611ad182611aa6565b9050919050565b611ae181611ac6565b8114611aec57600080fd5b50565b600081359050611afe81611ad8565b92915050565b60008060008060008060808789031215611b2157611b20611a37565b5b600087013567ffffffffffffffff811115611b3f57611b3e611a3c565b5b611b4b89828a01611a50565b96509650506020611b5e89828a01611aef565b9450506040611b6f89828a01611aef565b935050606087013567ffffffffffffffff811115611b9057611b8f611a3c565b5b611b9c89828a01611a50565b92509250509295509295509295565b60008115159050919050565b611bc081611bab565b82525050565b6000602082019050611bdb6000830184611bb7565b92915050565b60008060208385031215611bf857611bf7611a37565b5b600083013567ffffffffffffffff811115611c1657611c15611a3c565b5b611c2285828601611a50565b92509250509250929050565b600081519050919050565b600082825260208201905092915050565b6000819050602082019050919050565b600081519050919050565b600082825260208201905092915050565b60005b83811015611c94578082015181840152602081019050611c79565b60008484015250505050565b6000601f19601f8301169050919050565b6000611cbc82611c5a565b611cc68185611c65565b9350611cd6818560208601611c76565b611cdf81611ca0565b840191505092915050565b6000611cf68383611cb1565b905092915050565b6000602082019050919050565b6000611d1682611c2e565b611d208185611c39565b935083602082028501611d3285611c4a565b8060005b85811015611d6e5784840389528151611d4f8582611cea565b9450611d5a83611cfe565b925060208a01995050600181019050611d36565b50829750879550505050505092915050565b60006020820190508181036000830152611d9a8184611d0b565b905092915050565b600060208284031215611db857611db7611a37565b5b6000611dc684828501611aef565b91505092915050565b611dd881611ac6565b82525050565b600082825260208201905092915050565b6000611dfa82611c5a565b611e048185611dde565b9350611e14818560208601611c76565b611e1d81611ca0565b840191505092915050565b6000606082019050611e3d6000830186611dcf565b8181036020830152611e4f8185611def565b90508181036040830152611e638184611def565b9050949350505050565b600080600080600080600080600060a08a8c031215611e8f57611e8e611a37565b5b60008a013567ffffffffffffffff811115611ead57611eac611a3c565b5b611eb98c828d01611a50565b99509950506020611ecc8c828d01611aef565b97505060408a013567ffffffffffffffff811115611eed57611eec611a3c565b5b611ef98c828d01611a50565b965096505060608a013567ffffffffffffffff811115611f1c57611f1b611a3c565b5b611f288c828d01611a50565b945094505060808a013567ffffffffffffffff811115611f4b57611f4a611a3c565b5b611f578c828d01611a50565b92509250509295985092959850929598565b600060c0820190508181036000830152611f838189611def565b9050611f926020830188611dcf565b611f9f6040830187611dcf565b8181036060830152611fb18186611def565b90508181036080830152611fc58185611def565b9050611fd460a0830184611bb7565b979650505050505050565b600081905092915050565b82818337600083830152505050565b60006120058385611fdf565b9350612012838584611fea565b82840190509392505050565b600061202b828486611ff9565b91508190509392505050565b7f4e487b7100000000000000000000000000000000000000000000000000000000600052602260045260246000fd5b6000600282049050600182168061207e57607f821691505b60208210810361209157612090612037565b5b50919050565b600081905092915050565b60006120ae8385612097565b93506120bb838584611fea565b82840190509392505050565b60006120d48284866120a2565b91508190509392505050565b7f4f6e6c79206973737565722063616e20696e76616c6964617465000000000000600082015250565b6000612116601a83611dde565b9150612121826120e0565b602082019050919050565b6000602082019050818103600083015261214581612109565b9050919050565b60008190508160005260206000209050919050565b6000815461216e81612066565b6121788186612097565b9450600182166000811461219357600181146121a8576121db565b60ff19831686528115158202860193506121db565b6121b18561214c565b60005b838110156121d3578154818901526001820191506020810190506121b4565b838801955050505b50505092915050565b60006121f08284612161565b915081905092915050565b7f55736572206e6f74207265676973746572656400000000000000000000000000600082015250565b6000612231601383611dde565b915061223c826121fb565b602082019050919050565b6000602082019050818103600083015261226081612224565b9050919050565b7f4f6e6c7920697373756572732063616e2069737375652063657274696669636160008201527f7465730000000000000000000000000000000000000000000000000000000000602082015250565b60006122c3602383611dde565b91506122ce82612267565b604082019050919050565b600060208201905081810360008301526122f2816122b6565b9050919050565b7f4e487b7100000000000000000000000000000000000000000000000000000000600052604160045260246000fd5b60008190508160005260206000209050919050565b60006020601f8301049050919050565b600082821b905092915050565b60006008830261238a7fffffffffffffffffffffffffffffffffffffffffffffffffffffffffffffffff8261234d565b612394868361234d565b95508019841693508086168417925050509392505050565b6000819050919050565b6000819050919050565b60006123db6123d66123d1846123ac565b6123b6565b6123ac565b9050919050565b6000819050919050565b6123f5836123c0565b612409612401826123e2565b84845461235a565b825550505050565b600090565b61241e612411565b6124298184846123ec565b505050565b5b8181101561244d57612442600082612416565b60018101905061242f565b5050565b601f8211156124925761246381612328565b61246c8461233d565b8101602085101561247b578190505b61248f6124878561233d565b83018261242e565b50505b505050565b600082821c905092915050565b60006124b560001984600802612497565b1980831691505092915050565b60006124ce83836124a4565b9150826002028217905092915050565b6124e782611c5a565b67ffffffffffffffff811115612500576124ff6122f9565b5b61250a8254612066565b612515828285612451565b600060209050601f8311600181146125485760008415612536578287015190505b61254085826124c2565b8655506125a8565b601f19841661255686612328565b60005b8281101561257e57848901518255600182019150602085019450602081019050612559565b8683101561259b5784890151612597601f8916826124a4565b8355505b6001600288020188555050505b505050505050565b600082905092915050565b6125c583836125b0565b67ffffffffffffffff8111156125de576125dd6122f9565b5b6125e88254612066565b6125f3828285612451565b6000601f8311600181146126225760008415612610578287013590505b61261a85826124c2565b865550612682565b601f19841661263086612328565b60005b8281101561265857848901358255600182019150602085019450602081019050612633565b868310156126755784890135612671601f8916826124a4565b8355505b6001600288020188555050505b5050505050505056fea26469706673582212203af5b5d6fd355213212b5de17866ad9ded90454878160eb9226cd7474d5d804864736f6c63430008140033",
  "linkReferences": {},
  "deployedLinkReferences": {}
}