{
  "_format": "hh-sol-artifact-1",
  "contractName": "EtherDocs",
  "sourceName": "contracts/EtherDocs.sol",
  "abi": [
    {
      "inputs": [
        {
          "internalType": "string",
          "name": "uuid",
          "type": "string"
        }
      ],
      "name": "getCertificate",
      "outputs": [
        {
          "internalType": "string",
          "name": "",
          "type": "string"
        },
        {
          "internalType": "address",
          "name": "",
          "type": "address"
        },
        {
          "internalType": "address",
          "name": "",
          "type": "address"
        },
        {
          "internalType": "string",
          "name": "",
          "type": "string"
        },
        {
          "internalType": "string",
          "name": "",
          "type": "string"
        },
        {
          "internalType": "bool",
          "name": "",
          "type": "bool"
        }
      ],
      "stateMutability": "view",
      "type": "function"
    },
    {
      "inputs": [],
      "name": "getCertificatesIssuedBy",
      "outputs": [
        {
          "internalType": "string[]",
          "name": "",
          "type": "string[]"
        }
      ],
      "stateMutability": "view",
      "type": "function"
    },
    {
      "inputs": [],
      "name": "getCertificatesIssuedFor",
      "outputs": [
        {
          "internalType": "string[]",
          "name": "",
          "type": "string[]"
        }
      ],
      "stateMutability": "view",
      "type": "function"
    },
    {
      "inputs": [],
      "name": "getProfile",
      "outputs": [
        {
          "internalType": "address",
          "name": "",
          "type": "address"
        },
        {
          "internalType": "string",
          "name": "",
          "type": "string"
        },
        {
          "internalType": "string",
          "name": "",
          "type": "string"
        }
      ],
      "stateMutability": "view",
      "type": "function"
    },
    {
      "inputs": [
        {
          "internalType": "address",
          "name": "user",
          "type": "address"
        }
      ],
      "name": "getProfileByAddress",
      "outputs": [
        {
          "internalType": "address",
          "name": "",
          "type": "address"
        },
        {
          "internalType": "string",
          "name": "",
          "type": "string"
        },
        {
          "internalType": "string",
          "name": "",
          "type": "string"
        }
      ],
      "stateMutability": "view",
      "type": "function"
    },
    {
      "inputs": [
        {
          "internalType": "string",
          "name": "uuid",
          "type": "string"
        }
      ],
      "name": "invalidateCertificate",
      "outputs": [],
      "stateMutability": "nonpayable",
      "type": "function"
    },
    {
      "inputs": [],
      "name": "isIssuer",
      "outputs": [
        {
          "internalType": "bool",
          "name": "",
          "type": "bool"
        }
      ],
      "stateMutability": "view",
      "type": "function"
    },
    {
      "inputs": [],
      "name": "isUser",
      "outputs": [
        {
          "internalType": "bool",
          "name": "",
          "type": "bool"
        }
      ],
      "stateMutability": "view",
      "type": "function"
    },
    {
      "inputs": [
        {
          "internalType": "string",
          "name": "name",
          "type": "string"
        },
        {
          "internalType": "address",
          "name": "userAddr",
          "type": "address"
        },
        {
          "internalType": "string",
          "name": "uuid",
          "type": "string"
        },
        {
          "internalType": "string",
          "name": "hashValue",
          "type": "string"
        },
        {
          "internalType": "string",
          "name": "ipfsUrl",
          "type": "string"
        }
      ],
      "name": "issueCertificate",
      "outputs": [],
      "stateMutability": "nonpayable",
      "type": "function"
    },
    {
      "inputs": [
        {
          "internalType": "string",
          "name": "name",
          "type": "string"
        }
      ],
      "name": "registerIssuer",
      "outputs": [],
      "stateMutability": "nonpayable",
      "type": "function"
    },
    {
      "inputs": [
        {
          "internalType": "string",
          "name": "name",
          "type": "string"
        }
      ],
      "name": "registerUser",
      "outputs": [],
      "stateMutability": "nonpayable",
      "type": "function"
    },
    {
      "inputs": [
        {
          "internalType": "string",
          "name": "uuid",
          "type": "string"
        },
        {
          "internalType": "address",
          "name": "issuerAddr",
          "type": "address"
        },
        {
          "internalType": "address",
          "name": "userAddr",
          "type": "address"
        },
        {
          "internalType": "string",
          "name": "hashValue",
          "type": "string"
        }
      ],
      "name": "verifyCertificate",
      "outputs": [
        {
          "internalType": "bool",
          "name": "",
          "type": "bool"
        }
      ],
      "stateMutability": "view",
      "type": "function"
    }
  ],
  "bytecode": "0x608060405234801561001057600080fd5b50610c99806100206000396000f3fe608060405234801561001057600080fd5b506004361061004c5760003560e01c80632236684414610051578063526403141461006f578063bbe156271461008b578063d6afc9b1146100bd575b600080fd5b6100596100dd565b60405161006691906106a7565b60405180910390f35b61008960048036038101906100849190610731565b610155565b005b6100a560048036038101906100a09190610843565b6102c7565b6040516100b493929190610900565b60405180910390f35b6100c5610489565b6040516100d493929190610900565b60405180910390f35b6000806000803373ffffffffffffffffffffffffffffffffffffffff1673ffffffffffffffffffffffffffffffffffffffff168152602001908152602001600020905060008160000180546101319061097b565b9050118061014f5750600081600101805461014b9061097b565b9050115b91505090565b604051806060016040528087878080601f016020809104026020016040519081016040528093929190818152602001838380828437600081840152601f19601f82011690508083019250505050505050815260200185858080601f016020809104026020016040519081016040528093929190818152602001838380828437600081840152601f19601f82011690508083019250505050505050815260200183838080601f016020809104026020016040519081016040528093929190818152602001838380828437600081840152601f19601f820116905080830192505050505050508152506000803373ffffffffffffffffffffffffffffffffffffffff1673ffffffffffffffffffffffffffffffffffffffff168152602001908152602001600020600082015181600001908161028f9190610b91565b5060208201518160010190816102a59190610b91565b5060408201518160020190816102bb9190610b91565b50905050505050505050565b60006020528060005260406000206000915090508060000180546102ea9061097b565b80601f01602080910402602001604051908101604052809291908181526020018280546103169061097b565b80156103635780601f1061033857610100808354040283529160200191610363565b820191906000526020600020905b81548152906001019060200180831161034657829003601f168201915b5050505050908060010180546103789061097b565b80601f01602080910402602001604051908101604052809291908181526020018280546103a49061097b565b80156103f15780601f106103c6576101008083540402835291602001916103f1565b820191906000526020600020905b8154815290600101906020018083116103d457829003601f168201915b5050505050908060020180546104069061097b565b80601f01602080910402602001604051908101604052809291908181526020018280546104329061097b565b801561047f5780601f106104545761010080835404028352916020019161047f565b820191906000526020600020905b81548152906001019060200180831161046257829003601f168201915b5050505050905083565b606080606060008060003373ffffffffffffffffffffffffffffffffffffffff1673ffffffffffffffffffffffffffffffffffffffff16815260200190815260200160002090508060000181600101826002018280546104e89061097b565b80601f01602080910402602001604051908101604052809291908181526020018280546105149061097b565b80156105615780601f1061053657610100808354040283529160200191610561565b820191906000526020600020905b81548152906001019060200180831161054457829003601f168201915b505050505092508180546105749061097b565b80601f01602080910402602001604051908101604052809291908181526020018280546105a09061097b565b80156105ed5780601f106105c2576101008083540402835291602001916105ed565b820191906000526020600020905b8154815290600101906020018083116105d057829003601f168201915b505050505091508080546106009061097b565b80601f016020809104026020016040519081016040528092919081815260200182805461062c9061097b565b80156106795780601f1061064e57610100808354040283529160200191610679565b820191906000526020600020905b81548152906001019060200180831161065c57829003601f168201915b5050505050905093509350935050909192565b60008115159050919050565b6106a18161068c565b82525050565b60006020820190506106bc6000830184610698565b92915050565b600080fd5b600080fd5b600080fd5b600080fd5b600080fd5b60008083601f8401126106f1576106f06106cc565b5b8235905067ffffffffffffffff81111561070e5761070d6106d1565b5b60208301915083600182028301111561072a576107296106d6565b5b9250929050565b6000806000806000806060878903121561074e5761074d6106c2565b5b600087013567ffffffffffffffff81111561076c5761076b6106c7565b5b61077889828a016106db565b9650965050602087013567ffffffffffffffff81111561079b5761079a6106c7565b5b6107a789828a016106db565b9450945050604087013567ffffffffffffffff8111156107ca576107c96106c7565b5b6107d689828a016106db565b92509250509295509295509295565b600073ffffffffffffffffffffffffffffffffffffffff82169050919050565b6000610810826107e5565b9050919050565b61082081610805565b811461082b57600080fd5b50565b60008135905061083d81610817565b92915050565b600060208284031215610859576108586106c2565b5b60006108678482850161082e565b91505092915050565b600081519050919050565b600082825260208201905092915050565b60005b838110156108aa57808201518184015260208101905061088f565b60008484015250505050565b6000601f19601f8301169050919050565b60006108d282610870565b6108dc818561087b565b93506108ec81856020860161088c565b6108f5816108b6565b840191505092915050565b6000606082019050818103600083015261091a81866108c7565b9050818103602083015261092e81856108c7565b9050818103604083015261094281846108c7565b9050949350505050565b7f4e487b7100000000000000000000000000000000000000000000000000000000600052602260045260246000fd5b6000600282049050600182168061099357607f821691505b6020821081036109a6576109a561094c565b5b50919050565b7f4e487b7100000000000000000000000000000000000000000000000000000000600052604160045260246000fd5b60008190508160005260206000209050919050565b60006020601f8301049050919050565b600082821b905092915050565b600060088302610a3d7fffffffffffffffffffffffffffffffffffffffffffffffffffffffffffffffff82610a00565b610a478683610a00565b95508019841693508086168417925050509392505050565b6000819050919050565b6000819050919050565b6000610a8e610a89610a8484610a5f565b610a69565b610a5f565b9050919050565b6000819050919050565b610aa883610a73565b610abc610ab482610a95565b848454610a0d565b825550505050565b600090565b610ad1610ac4565b610adc818484610a9f565b505050565b5b81811015610b0057610af5600082610ac9565b600181019050610ae2565b5050565b601f821115610b4557610b16816109db565b610b1f846109f0565b81016020851015610b2e578190505b610b42610b3a856109f0565b830182610ae1565b50505b505050565b600082821c905092915050565b6000610b6860001984600802610b4a565b1980831691505092915050565b6000610b818383610b57565b9150826002028217905092915050565b610b9a82610870565b67ffffffffffffffff811115610bb357610bb26109ac565b5b610bbd825461097b565b610bc8828285610b04565b600060209050601f831160018114610bfb5760008415610be9578287015190505b610bf38582610b75565b865550610c5b565b601f198416610c09866109db565b60005b82811015610c3157848901518255600182019150602085019450602081019050610c0c565b86831015610c4e5784890151610c4a601f891682610b57565b8355505b6001600288020188555050505b50505050505056fea2646970667358221220c0bbfb4db62f95cfca8ed6d7d5eefc1645a4fbdd850fff5de42dc52b20f2eae964736f6c63430008140033",
  "linkReferences": {},
  "deployedLinkReferences": {}
}